{
  "contractName": "Effect",
  "abi": [
    {
      "constant": true,
      "inputs": [],
      "name": "kind",
      "outputs": [
        {
          "name": "",
          "type": "uint8"
        }
      ],
      "payable": false,
      "stateMutability": "view",
      "type": "function"
    },
    {
      "constant": true,
      "inputs": [],
      "name": "name",
      "outputs": [
        {
          "name": "",
          "type": "string"
        }
      ],
      "payable": false,
      "stateMutability": "view",
      "type": "function"
    },
    {
      "constant": true,
      "inputs": [],
      "name": "value",
      "outputs": [
        {
          "name": "",
          "type": "uint8"
        }
      ],
      "payable": false,
      "stateMutability": "view",
      "type": "function"
    },
    {
      "constant": true,
      "inputs": [],
      "name": "description",
      "outputs": [
        {
          "name": "",
          "type": "string"
        }
      ],
      "payable": false,
      "stateMutability": "view",
      "type": "function"
    },
    {
      "constant": true,
      "inputs": [],
      "name": "id",
      "outputs": [
        {
          "name": "",
          "type": "uint8"
        }
      ],
      "payable": false,
      "stateMutability": "view",
      "type": "function"
    },
    {
      "inputs": [],
      "payable": false,
      "stateMutability": "nonpayable",
      "type": "constructor"
    },
    {
      "constant": false,
      "inputs": [],
      "name": "excute",
      "outputs": [],
      "payable": false,
      "stateMutability": "nonpayable",
      "type": "function"
    }
  ],
  "bytecode": "0x608060405234801561001057600080fd5b506103e9806100206000396000f300608060405260043610610078576000357c0100000000000000000000000000000000000000000000000000000000900463ffffffff16806304baa00b1461007d57806306fdde03146100ae5780633fa4f2451461013e5780637284e4161461016f5780639aea4324146101ff578063af640d0f14610216575b600080fd5b34801561008957600080fd5b50610092610247565b604051808260ff1660ff16815260200191505060405180910390f35b3480156100ba57600080fd5b506100c361025a565b6040518080602001828103825283818151815260200191508051906020019080838360005b838110156101035780820151818401526020810190506100e8565b50505050905090810190601f1680156101305780820380516001836020036101000a031916815260200191505b509250505060405180910390f35b34801561014a57600080fd5b506101536102f8565b604051808260ff1660ff16815260200191505060405180910390f35b34801561017b57600080fd5b5061018461030b565b6040518080602001828103825283818151815260200191508051906020019080838360005b838110156101c45780820151818401526020810190506101a9565b50505050905090810190601f1680156101f15780820380516001836020036101000a031916815260200191505b509250505060405180910390f35b34801561020b57600080fd5b506102146103a9565b005b34801561022257600080fd5b5061022b6103ab565b604051808260ff1660ff16815260200191505060405180910390f35b600360019054906101000a900460ff1681565b60018054600181600116156101000203166002900480601f0160208091040260200160405190810160405280929190818152602001828054600181600116156101000203166002900480156102f05780601f106102c5576101008083540402835291602001916102f0565b820191906000526020600020905b8154815290600101906020018083116102d357829003601f168201915b505050505081565b600360009054906101000a900460ff1681565b60028054600181600116156101000203166002900480601f0160208091040260200160405190810160405280929190818152602001828054600181600116156101000203166002900480156103a15780601f10610376576101008083540402835291602001916103a1565b820191906000526020600020905b81548152906001019060200180831161038457829003601f168201915b505050505081565b565b6000809054906101000a900460ff16815600a165627a7a723058207bb9cc136eb6ec9ac8cde9d2dee461a3929b4713038c0e11a7a77b6a5c1ea9ed0029",
  "source": "pragma solidity ^0.4.23;\n\ncontract Effect {\n\n    uint8   public  id;\n    string  public  name;\n    string  public  description;\n    uint8   public  value;\n    uint8   public  kind;\n\n    constructor() public{\n\n    }\n\n    function excute() public {\n        //return the effect result of relative cards\n    }\n}\n",
  "sourcePath": "/Users/tangshumin/learn/fyjh/contracts/Effect.sol",
  "compiler": {
    "name": "solc",
    "version": "0.4.24+commit.e67f0147.Emscripten.clang"
  },
  "schemaVersion": "2.0.1",
  "updatedAt": "2018-10-22T11:53:22.909Z"
}